:100000000C94750A0C94AD0A0C94AD0A0C947730DC
:100010000C94AD0A0C94AD0A0C94AD0A0C94AD0A84
:100020000C94AD0A0C94AD0A0C940E180C94DB1DC4
:100030000C94032C0C94AD0A0C94AD0A0C94AD0AEC
:100040000C94AD0A0C94AD0A0C94AD0A0C94AD0A54
:100050000C94AD0A0C94E7180C94AD0A0C94AD0AFC
:100060000C94AD0A0C94AD0A0C94AD0A0C94AD0A34
:100070000C94AD0A0C94AD0A0C94AD0A0C94AD0A24
:100080000C94AD0A0C94AD0A0C94AD0A0C94AD0A14
:100090000C94AD0A0C94AD0A0C94AD0A0C94AD0A04
:1000A0000C94AD0A0C94AD0A0C94AD0A05010980BC
:1000B000A101850319012AB700150126B700950192
:1000C00075108100C0050C0901A101850419012AE0
:1000D000A002150126A002950175108100C005013E
:1000E0000906A1018506050719E029E71500250184
:1000F0009508750181020507190029EF15002501F2
:1001000095F075018102050819012905950575010C
:100110009102950175039101C005010902A1010930
:1001200001A1000509190129081500250195087587
:100130000181020501093009311581257F9502757C
:1001400008810609381581257F9501750881060506
:100150000C0A38021581257F950175088106C0C0FB
:1001600005010906A101050719E029E71500250188
:10017000950875018102950175088101050719002F
:1001800029FF150026FF009506750881000508194E
:10019000012905950575019102950175039101C02D
:1001A00014001A00090013000500040015001600D1
:1001B00017000A001D001B000600070019002B4154
:1001C000000001542C430000C05D1C0018000F000B
:1001D0000D0012000C000800110010000255BE5D59
:1001E000BD5D0B000E002942000028450000000004
:1001F00007540654005700000000C95DCC5DCA5D7D
:10020000CB5D00000000F200F100F30000000100EF
:100210000000010000000000220230022E002F0228
:100220002402210227023802260223023300300072
:100230001F022F00310200000000E25D00000000FC
:10024000340236022E003702350020022E022D0025
:1002500033021E0235023100250238002D02000053
:100260000000000000000000075406540057000082
:100270000000C95DCC5DCA5DCB5D00000000F200EE
:10028000F100F300000001000000E25D000000004A
:10029000DB5D2B13AD5D2B01DC5DB15DCC5DCA5D1B
:1002A000CB5DAF5DAE5DAB5DAA5DA95DB05D0000ED
:1002B00000000000010000004B004D00C55D4A0039
:1002C00000004E00C85DC65DC75D00000000000074
:1002D00000000000000000000000045100000000C9
:1002E0000000D45DD55DD65D00000000D15DD25D1B
:1002F000D35D00000000CE5DCF5DD05D000000004A
:100300000000E100000000000000DD5DE15DDE5D59
:1003100000000000DF5D0000E05D00000000DA5D2D
:10032000D85DD95D00000000000000000000000062
:10033000BE5DB85DB95DBA5DBD5D2E00B55DB65DF3
:10034000B75D2E023800B25DB35DB45D25022D00AD
:1003500000002A00BB5D000000000000000000005B
:100360000000C95DCC5DCA5DCB5D000000000000EF
:10037000000000000000000000000100000000007C
:100380004500400041004200000044003D003E00A6
:100390003F00000043003A003B003C00000000002A
:1003A0000000000000000000480047004900530022
:1003B0000000C95DCC5DCA5DCB5D0000000000009F
:1003C000000000000000000000000000000000002D
:1003D00000000000A85D0000C35C000000000000F9
:1003E00000000000005CDF5C000000000000C55C55
:1003F00000000000C45C000000000000A85D0000D8
:10040000C35C00000000000000000000005CDF5C36
:10041000000000000000C55C0000C45C000000009B
:1004200001048E966E773EFE7E5F1DB8F2664EFF2B
:100430005D19B0C20469542AD62EBFDD19B0C3E5D8
:1004400029B1E023A5A9B1C10082674C1A978D7923
:100450005120C7068E7C7C7A764FFD5930E2460EDD
:100460009EBEDF1D9991A0A5A1A9D022C6EF5C1B5D
:10047000958990A2A7CCFB5528B3E44AF76C3BF4CE
:100480006A562EDE1F9DB8D3058892A6CE1EBEDF0B
:100490001D99B0E246EF5C07115D980B9D9497EEB5
:1004A0004E45336B44C729562730C6A7D5F256DFD1
:1004B000B43862CBA0B6E30F84062405656F768955
:1004C000B577412782666582CCD5E620D52717C54A
:1004D000F803237C5F64A51DC1D636CB4CD4DB6604
:1004E000D78BB1997E6F4C364006D6EBD7A2E4F499
:1004F00095515A5496D55344D78CE0B94068D218D8
:10050000E9DD9A239248EE7F43AFEA7738848C0A7C
:1005100072AF69F8DDF12483A3F84ABFF59413DBC9
:10052000BBD8B4B3A0FB4550603059123171A2D38F
:1005300013E7FAE7CE0F63150B6B94BB37832605E1
:100540009DFB4692FC0A15D10D7392D68C1B8CB87C
:10055000558ACEBDFE8EFCED091283918251312366
:10056000FBB40C76AD7CD9B44BB26714099C7F0CFC
:1005700018BA3BD68E142AE41B529F2B7DE1FB6AEE
:100580003302FAAC5AF23E887EAED1F378E805D158
:10059000E3DC21F6E19ABD170ED9469B8803EAF603
:1005A00066BE0E1B5049964097F1F1E480A66EE8B6
:1005B0007734BF294044C2FF4E98D39CA3322B7698
:1005C000510409E7A9D1A632B12353E247ABD6F5CE
:1005D000695C3E5FFAAE4520E5D244FF39326DFDDD
:1005E00027575CFDF0DEC1B599E5F51C770175C5AF
:1005F0006D5892F2B247000126967A30FFB7F0EFBD
:1006000077C18A5DDCC0D129301E77387A94F1B881
:100610007A7EEFA4D1AC314AF25D643DB2E2F008DB
:1006200099FC70EE24A77EEE1E20697D44BF8742B0
:10063000DF883B0CDA42C904F94550FC838F116A0C
:1006400072BC9995F0AC3DA73BCD1CE2887937117F
:100650005F3989950A16847AF68AA428E4ED8380A6
:100660003BB123A50310F466EABB0C0FC5EC6C6923
:10067000C5D324ABD42AB799887608A0A8957CD88E
:10068000386DCD5902514BF1B52B50E3B6BDD07248
:10069000CF9EFD6EBB44C8248A77188A1306EF9755
:1006A0007DFA81F031E6FA77ED3106315B548A9FAD
:1006B0003068DBE240F84E73FAAB748B105813DCF1
:1006C000D2E678D1322E8A9F2C58064827C5A95EDB
:1006D0008147894621910370A43E889CDA330ACE73
:1006E000BC8B8ECF9FD3718043CF6BA95183763063
:1006F00082C56A853911501A82DC1E1CD57DA9710C
:100700009933471997B35AB1DFEDA4F2E62684A2D4
:10071000289A9EDFA66AF4D6FC2E5B9D1A2A2768CB
:10072000FBC183214B90E036DD5B314255A013F7CE
:10073000D089537199570929C5F321F8372F40F310
:10074000D4AF16083602FC77C58B049056B9C9673A
:100750009A99E800D386FF972D08E9B7B391BCDFDB
:1007600045C6ED0F8C4C1EE65B6E3830E4AAE3956F
:10077000DEB9E49AF5B2559A879BF66AB2F2779A97
:1007800031F47A31D11D04C07C32A29E9AF562F810
:10079000278DBF51FFD3DF64373F2A6F763A7D77CD
:1007A000069E777F5EEB3251F916669A09F3B00820
:1007B000A470964630FFDA4FE91BED8DF8741F31B7
:1007C00092B3731736DB9130D688556B3477877ABE
:1007D000E7EE06C61C8C190C4846235E9C075CBFDE
:1007E000B47ED64F749CE2C5508BC58B1590606269
:1007F0005729D01343A18088910044C74D1986CC56
:100800002F2A755AFCEB972A70E378D891B04F994C
:1008100007A395EA2421D5DE512093270A3073A837
:10082000FF8A97E9A76A8E0DE8F0DFECEAB46C1D49
:10083000392A622D3D5A8B65F890052E7E912C78D1
:10084000EF8E7AC12FAC78EEAF2845064C26AF3B31
:10085000A2DBA39306B53CA5D8EE8FAF25CC3F8590
:100860006848A962CC978F7F2AEAE0150AAD620733
:10087000BD45F841D836CB4CDB6EE63AE7DA15E9F0
:10088000291E1210A0142C0E3DF4BF394192750B95
:10089000257BA3CE399C1564C8FA3DEF7327FE264D
:1008A0002ECEDA6EFD718EDDFE76EEDC125C02C5B8
:1008B0003A4E4E4FBFCA4015C76E8D41F110E04F02
:1008C0007E977F1CAE478E6BB12531B073C71B97E7
:1008D00079F980D366223007741EE4D08021D6EEE9
:1008E0006B6C4FBFF5B7D909872FA914BE27D972F2
:1008F0005001D41373A6A751027525E1B345347D89
:10090000A88EEBF31649CB4F8CA1B9368539755DAE
:100910000800AEEBF6EAD7133A215A5F308452262C
:1009200095C914F257556BB110C2E1BD3B51C0B728
:10093000554C711226C70DF951A43802057FB8F144
:10094000724BBF718914F37738D97124F30011A168
:10095000D8D46927083735C9119D901C0EE71CFFB4
:100960002D1EE892E11810957CE080F4964321F961
:1009700075216438DD9F1E9516DA561D4F9A53B2C5
:10098000E2E418CB6B1A65EB56C63BE5FED8263F72
:100990003A84597266A2F375FFFB60B322AD3F2D16
:1009A0006BF9EBEA057CD88F6D2C989E2B93F15E4A
:1009B00046F08749297368D77FF9F0E57DDB1D751F
:1009C00019F3C4589B1788A892E0BEBD8B1D8D9F5C
:1009D0005676ADAF29E2D9D552F6B55635573AC855
:1009E000E156431994D3049B6D35D80B5F4D198E96
:1009F000ECFA64910A72202BBC1A4AFE8BFDBBED07
:100A00001B23EAAD7282A1299971BDF095C103DD66
:100A10007BC2B23C2854D368A472C86696E0D1D891
:100A20007FF8D1262BF7ADBA55CA15B932C3E58880
:100A3000978E5CFB92258BBFA245557AA76F8B578B
:100A40005BCF0ECB1DFB208277A88CCC16CE1DFA77
:100A5000DECC0B62FECCE1B7F0C381647340A0C270
:100A60004D8911753355338DE84AFDEA6E300BD749
:100A7000312CDE47E3BFF85542E27F59E517EF9985
:100A8000346991B1238E20872DA8FED58AF3843A4C
:100A9000F037E4090054EE674993E48170E3904D28
:100AA000EFFE41B7997BC183BA62126F7DDE6BAFF7
:100AB000DA16F95551EEA60C2B02A3FD8DFB30176B
:100AC000E46FDF3671C4CA872548B047ECEAB4BF8B
:100AD000A54D9B9F0293C4E3E4E8422D6881150A6B
:100AE000EB845BD6A874FB7D1DCB2CDA462A76629C
:100AF000CEBC5C9E8BE7CFBE78F57CEBB33A9CAA6C
:100B00006FCC72D159F21123D63F48D1B7CEB0BFC6
:100B1000CBEA80DE57D45E972F75D1508E802C663D
:100B200079BF724BBD8A816CD3E101DCD21526C539
:100B300036DA2C1AC02794EDB79B850B5E8097C5DB
:100B4000EC4FEC885D50073547DC0B3B3DDD60AF7B
:100B5000A85D813824255D5C15D1DEB3ABEC056959
:100B6000EF83ED5754B8646411163269DA9F2D7F14
:100B700036BB445A34E87FBF03EB007F59682279C3
:100B8000CF736C2C29A7A15F38A11DF02053E01A68
:100B90006314587110AA080C3E161A6022827FBA9C
:100BA000A443A0D0AC1BD56B64B51493319E5350B5
:100BB000D05766EE5A4FFB032A695876F183F74EF9
:100BC000BA8C4206605D6DCE6088AEA4C3F103A509
:100BD0004B98A1FF67E1ACA2B862D76FA031B4D245
:100BE00077AF211006C69AFF1D09170E5FF1AA54B0
:100BF000344B458A8763A6DCF9243067C6B2D661D8
:100C00003369EE50615728E77EEEEC3A5A734EA8EE
:100C10008DE418EAEC4164C8E2E866B62DB6FB6ADA
:100C20006C16B3DD4643B973006A71ED4E9D251A0B
:100C3000C33C4A95159935811402D6989BECD8236C
:100C40003B8429AF0C9983A69A344FFAE8D03C4BE9
:100C5000D0FBB668B89E8FCDF7602D7A22E57DABCC
:100C6000651B95A7A87FB677477B5F8B1272D0D4A0
:100C700091EFDE19503CA78BC4A9B323CB76E68154
:100C8000F0C1048FA3B8545B97AC19FF3F55272FD1
:100C9000E01D429B57FC4B4E0FCE98A9435703BD16
:100CA000E7C894DF6E367332B4EF2E857A6EFC6C33
:100CB000188275359007F3E49F3EDC68F3B5F319AD
:100CC00080920699A2E86FFF2E7FAE42A45FFBD40C
:100CD0000E812BC304FF2BB3744E365B9C1500C6EC
:100CE000472BE88B3DF19C039A587F9B9CBF85491D
:100CF00079352E567B411439478326AA07899811E6
:100D00001B86E7737AD87D786153E979F5368D448F
:100D10009284F91350583BA46A3665498E3C0EF113
:100D20006FD284C47E8E3F39AE7C84F163378E3CB3
:100D3000CC3E448145F14BB9ED6B365DBB20601A6A
:100D40000FA3AA55773AA9AE374DBAB8866BBC083F
:100D500050F6CCA4BD1D4072A586FAE210AE3D58F7
:100D60004B97F34374A99EEB21B701A4869397EEAA
:100D70002F4F3B86A1416F412690785C7F30384BE6
:100D80003FAAECED5C6F0EAD4387FD9335E601EFB6
:100D9000412690999EFB195BADD2918AE046AF65E2
:100DA000FA4F84C1A12DCF458BD38550557CF9676F
:100DB00088D44EE9D76B6154A1A4A6A2C2BF309CCF
:100DC000409F5FD7692B24825ED9D6A712541AF7A9
:100DD000559F7650A99584E66B6DB59654D6CDB3E4
:100DE000A19B46A7944DC494B498E3E1E234D53373
:100DF000160754CDB77753DB4F4D469DE9D49C8AF7
:100E000036B6B838266C0EFF9C1B438B80CCB93DA0
:100E1000DAC7F18AF26DB8D7742F7E1EB7D34AB401
:100E2000ACFC79486CBC96B69446572DB0A3FC1E1A
:100E3000B95260852D41D043011E1CD57DFCF3962F
:100E40000DC7CB2A299A93DD882D375DAAFB496807
:100E5000A09C50867F685657F9791839D4E00184F0
:100E60003361CAA5D2D6E4C98A4A23444EBCF0DC19
:100E700024A1A0C4E2073C10C4B5254B6563F480EF
:100E8000E7CF61B1718221872CF59100320CECA97A
:100E9000B59A7485E3368F764F9C6DCEBCAD0A4B08
:100EA000ED7604CBC3B9339E019396697DC5A24507
:100EB000799B045C8409ED8843C7AB931426A14059
:100EC000B5CE4EBF2A42853E2C3B54E8121F0E97EA
:100ED00059B22789FAF2DF8E6859DC06BCB6850D57
:100EE0000622ECB1CBE504E63DB3B04173083F3CCC
:100EF000588663EB50EE1D2C3774A9D318A3476EA8
:100F00009354AD0A5DB82A555D78F6EEBE8E3C76F8
:100F100069B940C234EC2AB9ED7E20E48D0038C7AF
:100F2000E68F44A886CEEB2AE990F14CDF32FB73C2
:100F30001B6D921E95FEB4DB65DF4D23548948BFBF
:100F40004A2E70D6D762B43329B13A334C236DA6FA
:100F500076A5216348E6905DED90950B7A84BEB846
:100F60000D5E630C62264C145AB3AC23A474A76FB5
:100F7000333005600142A028B7EE1938F164808251
:100F800043E141271F1F90547AD5232ED13DCB2812
:100F9000BA587FDC7C9124E92851836EC5562142E2
:100FA000EDA05622A140806BA8F794CA136B0C39B0
:100FB000D9FDE9F36FA69EFC708AB3BC593C1E1D97
:100FC0006CF97CAFF9887195EB5700BD9F8C4FE1B0
:100FD0002483C522EAFDD30CE217187C6A4CDE7725
:100FE000B4539B4C81CD2360AA0E25739C027932A9
:100FF00030DF74DF7519F4A5145CF77AA8A5918425
:101000007C6003063BCD50B6279CFEB1DDCCD3B04F
:101010005924B2CAE21C81229D078F8EB9BE4EFAB6
:10102000FC3965BABF9D12375E977EF389F55DF591
:10103000E3098C62B5209D0C538A681BD28F75170B
:101040005DD4E5DA756219146A262DEBF8AF37F036
:101050006CA455B1BCE233C09ACAB011494F689B29
:101060003B6B3CCC13F6C785616842AEBBDDCD451A
:1010700016291DEADBC803943CEE4F8211C3EC280D
:10108000BD970599DED7BB5E221FD4EB64D992D9F8
:1010900085B76A056AE42441F1CDF0D83FF89E0E89
:1010A000CD0B7A706B5A750A6A3388EC1775087025
:1010B000102F24CFC4E942006194CA1F3A7606FA81
:1010C000D24881F077600345D961F4A46F3DD930EF
:1010D000C3046B542AB7EC3BF44BF5685226CEFFA1
:1010E0005D1991A0A3A5A9B1E023C40A774DF951D8
:1010F00020A3A5A9B1C10082868E7F5D1991A0A30E
:10110000C4EB540B756852078C9A978D79706246C0
:10111000EF5C1B95897141E121A1A1A1C002674C3F
:101120001AB6CFFD785324ABB5C9F16023A5C81218
:10113000876D5813858892876D5832C70C9A97AC83
:10114000DA36EE5E3EDF1DB8F2662FBDF87247ED6F
:101150005813858892878C7B550990A2C6EF3DF87D
:101160005324ABD42AB7EC5A36EE5E3EDF3CFA7617
:101170004FFD5930E246EF3DF853056931C1008219
:10118000868E7F5D19B0E227CCFB744B148B948B59
:10119000756833C50892878C9AB6CF1CBAD70D985C
:1011A000B2E62FDC1B9589716023C40A968F9CBA26
:1011B000F66E3FFC5B15A8D226AFBDF872662FDC39
:1011C0001BB4CB148B94AAB7CDF951018082866FE2
:1011D0003DD930E227CCFB744B14AAB7CDF970434C
:1011E000046B35C9F16023A5C8F3450892876D5893
:1011F00032E62FBDF872664E1EBEFE7E7E7E5F1DFD
:101200009991A0A3C40A774D1893A4ABD40B754948
:1012100010A2C6EF3DF85324ABB5E833E44A16AE4E
:10122000DE1FBCDB15A8B3C5087345E931C1E12158
:10123000A1A1A1C002866F5C3AD70D9893A4CA16EB
:10124000AEDE1F9D99B0E246EF3DF872470C9AB6AC
:10125000CFFD5911A0A3A5C8F3450892876D39F0B9
:1012600043048A96AEDE3EDF1D9991A0C2066F3D13
:10127000F872470C9A978D989385887345E931E009
:1012800023A5A9D003848A96AEDE1FBCDB15A8D2A5
:1012900026CEFF5D1991818082672DD813A4ABD42F
:1012A0000B94AAB7CDF95120A3A5C8F345E9502264
:1012B000C6EF5C3AD70D9893858873644AF74DF969
:1012C0005120A3C40A96AEDE3EFE7E7E7E5F3CFACF
:1012D000764FFD7872662FBDD930C3E54812878CF2
:1012E0007B5528D2078C9A97ACDA178D795120A3B9
:1012F000C4EB540B948B94AAD62EBFFC5B15A8D2DA
:1013000026AFDC1BB4EA37EC3BF46A37CD18938583
:101310006931C1E140E325C812878C9AB6CFFD59E7
:1013200011A0C2068E7F5D38F2470C7B746A37ECE1
:101330005A36EE3FFC7A764F1C9B958971410063CB
:1013400044EB542AD60F9CBAD70D9893856931C1C6
:101350000082868E9EBEDF3CFA572CDA36EE3FFCCA
:101360005B158971410082868E7F5D38F247ED58AA
:1013700013A4CAF74DF95101806344EB542AD62EC9
:10138000BFDD1991A0A3A5A9B1E042068E7F5D192A
:1013900091A0A3C40A968F7D7872470C7B746A561D
:1013A0002EDE1FBCFA570D7951016121A1C0E32542
:1013B000A9B1C1E14002674C1A978D9893A4ABD4B0
:1013C0002AD60F9C9BB4CB14AAB7CDF95120A3C445
:1013D000EB35C9F16042068E7F7C7A766E3FFC7AEF
:1013E000766E5E3EFE7E5F3CDB15897141E121C079
:1013F000E344EB542AB7CDF9706227ADD832C70C5D
:101400007B744B14AAB7EC3BD528D2076D39D12099
:10141000C2E74C1A978D98B2C70C5928F39B090262
:101420005400030100A0FA090400000103010100B7
:101430000921110100012240000705810308000174
:101440000904010001030102000921110100012228
:101450004700070582030800010904020001030098
:101460000000092111010001226D000705830320FE
:1014700000011201000200000008F8A83218010063
:10148000010200013A034300680061007200790024
:10149000620064006900730020004E0061006E006D
:1014A0006F0020002800330078003500290020005C
:1014B00045006C006900740065002D0043000000C9
:1014C0002403420061007300740061007200640034
:1014D00020004B006500790062006F00610072001F
:1014E0006400730000000403090411241FBECFEF41
:1014F000DAE0DEBFCDBF04B603FE18C080918B03D7
:1015000090918C03A0918D03B0918E038730904B06
:10151000A740B04B59F410928B0310928C03109299
:101520008D0310928E03E0E0F8E3099511E0A0E04E
:10153000B1E0E2EEF4E602C005900D92A83CB107DE
:10154000D9F723E0A8ECB1E001C01D92AB38B20797
:10155000E1F70E942A2C0C941F320C940000E8ED55
:10156000F0E080818E7F80831092E2001092DA009A
:101570001092E100A0EEB0E08C9181608C938081AC
:101580008F77808319BCA7EDB0E08C918E7F8C9310
:1015900080818F7E808310924E0308952091E40015
:1015A0003091E50095E6A9012091EC00822F817031
:1015B00020FF06C08091E80080FF06C080E008950B
:1015C0002091E80022FD1AC080917303882389F0DE
:1015D000853089F08091EB0085FD0FC02091E400FB
:1015E0003091E50042175307F9F29150E1F684E09B
:1015F000089582E0089583E0089581E00895EF92D0
:10160000FF920F931F93CF937C018B010E94CE0A10
:10161000C82F811117C08091E80085FD0BC0809113
:10162000E8008E778093E8000E94CE0A882399F321
:10163000C82F08C0F70181917F018093F10001500C
:10164000110949F78C2FCF911F910F91FF90EF90C7
:1016500008958091750387FF13C08091E80082FF91
:1016600006C08091E8008B778093E80004C08091E9
:1016700073038111F2CF0895809173038823D9F306
:101680008091E80080FFF8CF8091E8008E77ECCF62
:10169000982F9093E900242F762F50E0891731F08E
:1016A0007091EC002091ED005091F00021FD07C0F9
:1016B0009F5F973071F78093E90081E00895309142
:1016C000EB003E7F3093EB003091ED003D7F309397
:1016D000ED003091EB0031603093EB007093EC0043
:1016E0002093ED005093F0002091EE0027FDE0CF15
:1016F00080E00895CF92DF92EF92FF920F931F93B5
:10170000CF93DF93C8EDD0E088818F7E8883E7EDAB
:10171000F0E080818160808384E082BF81E08093FB
:101720004E0388818E7F888302EE10E0F8011082DC
:101730001092DA0081EEC82ED12CF6011082888139
:101740008F77888388818068888388818F7D88836C
:1017500019BC1092730310927403109272031092CA
:10176000710390EEE92EF12CF70180818B7F80834D
:1017700088818160888342E060E080E00E94480BBD
:10178000F60180818E7F8083F80180818160808373
:10179000808188608083F70180818E7F808388814B
:1017A00080618883DF91CF911F910F91FF90EF901F
:1017B000DF90CF900895FC0180917B0390917C0392
:1017C00086179707A0F06115710529F49091E8003C
:1017D0009E779093E80090E06115710551F49111A6
:1017E00008C08091E80082FF34C080E00895BC0109
:1017F000F2CF809173038823C1F18530C1F18091CC
:10180000E80083FD30C08091E80082FDEACF80913E
:10181000E80080FFE1CF8091F3002091F200382FA3
:101820006115710519F02830310558F091E0283024
:10183000310509F090E02091E8002E772093E80030
:10184000CBCF81918093F100615071092F5F3F4FA1
:10185000E7CF80917303882341F0853041F0809178
:10186000E80083FFBECF81E0089582E0089583E021
:1018700008950895809150030895CF92DF92EF92DA
:10188000FF922FB7F894C0904503D0904603E090A4
:101890004703F09048032FBFA7019601261B370B83
:1018A000480B590BCA01B901FF90EF90DF90CF9020
:1018B00008959C014FB7F894809145039091460399
:1018C000A0914703B09148034FBF821B930B08952B
:1018D0002FB7F894609145037091460380914703B8
:1018E000909148032FBF089520917E012223C9F0D3
:1018F0002091490327FF15C0E62FE695E695E6956A
:10190000EE31D8F4E80FF92FF11D677021E030E0D7
:1019100001C0220F6A95EAF720958281282322834D
:101920000895FC01329608962191621303C0DF01ED
:1019300011971C92E817F907B9F7089520917E01D5
:101940002223C1F02091490327FF14C0E62FE6951A
:10195000E695E695EE31F8F4E80FF92FF11D677082
:1019600021E030E001C0220F6A95EAF78281822BE4
:1019700082830895FC0132962FEF30E04191641785
:1019800051F02F3F19F4411101C0232F3F5F363032
:10199000A9F72F3F09F40895820F911D27FD9A950D
:1019A000FC0162830895209142033091430328177C
:1019B000390771F09093430380934203E091400311
:1019C000F0914103309721F00084F185E02D0994D6
:1019D000089520913E0330913F032817390771F095
:1019E00090933F0380933E03E0914003F0914103C5
:1019F000309721F00680F781E02D09940895FC01CD
:101A0000680F791F8FEF91E32191822728E030E062
:101A100087FF09C0880F892721503109C9F7E617C8
:101A2000F70791F70895880FF7CF80E0089578942D
:101A30000895F894E82FE295EF70F0E031A1282F97
:101A40002F7081E090E001C0880F2A95EAF7982F67
:101A50009095932391A392A1892B82A30C94170DA7
:101A60009091490392FF06C0282F28712830F9F47D
:101A7000877F846093FF06C0282F28712831F1F4F6
:101A8000877E846120914A0320FF06C0382F387179
:101A90003830D9F4877F816021FF06C0282F287154
:101AA0002831D1F4877E816194FD877E0895282FA7
:101AB00024712430F9F68B7F8860DCCF282F2471C5
:101AC000243101F78B7E8861DDCF382F31713130C1
:101AD00019F78E7F8860E0CF282F2171213121F7FF
:101AE0008E7E8861E1CFCF93DF93EC018238910540
:101AF000A9F1D8F58133910509F496C048F58932EA
:101B0000910509F48AC08A9709F495C0C11522E5A8
:101B1000D20708F0B6C0C11531E5D30708F026C1D9
:101B2000C83ED10508F09CC0C03ED10560F5C83A5A
:101B3000D10508F087C0C53AD10508F0EFC0C13023
:101B4000D10509F12097F9F0C430D105E0F440C087
:101B50008533910509F45AC0C997C1F680914903AC
:101B6000837089F0C0EED0E00EC0833E910599F1FC
:101B700070F4803E910501F1823E910539F6809125
:101B8000490382FD21C0CE01DF91CF910895863EA9
:101B9000910561F1873E910571F1843E910509F04F
:101BA000B5CF80914A0381FFEECF80914903C7EE04
:101BB000D0E084FD0DC0E7CF8091490380FD07C1CF
:101BC00090914A0390FFDFCFC3EED0E084FFDBCFDC
:101BD000D0E0C0E0D8CF8091490382FDFBC0909156
:101BE0004A0390FDBFCF84FFCECFF2CF809149034F
:101BF00083FDDDCFC8CF8091490383FDEEC0909176
:101C00004A0391FFF0CFC4EED0E0BDCF80914903ED
:101C100085FFB9CFC9E2D0E0B6CF8091490385FFF7
:101C2000B2CFC5E3D0E0AFCF8091490386FFABCF01
:101C3000CAE2D0E0A8CF8091490386FFA4CFC1E3D8
:101C4000D0E0A1CFCF3BD10518F6C85AD0E0CC0FD9
:101C5000DD1FC857DE4F0990D881C02DD46493CFC3
:101C6000C11540E5D40708F064C0C11580E4D80769
:101C700008F05CC0CE019A9581159F4108F483CF8E
:101C8000A7CFC11536E5D30718F5C11545E5D4072B
:101C900008F084C0C11584E5D80708F07AC09C2FED
:101CA000969596959E0123703327C115D34508F468
:101CB00062C0C1E0D0E002C0CC0FDD1F2A95E2F780
:101CC00030E2939FC0011124C82BD92BDA685BCF77
:101CD000C1158AE5D80778F4C11599E5D90708F048
:101CE00068C0C11528E5D20708F472CFDC2FCC27D5
:101CF000C06FD06A48CFCE0190568115904208F04F
:101D000067CF8D2F8F710E94300D90E0982F88271C
:101D100088279F719C012C2BE90149C0C55AD0E04E
:101D2000CB57DE4FC881D0E0D0642DCFDF70D06AB2
:101D30002ACFCE01E4E096958795EA95E1F7837086
:101D40002C2F26952695237040E2249F9001112484
:101D5000382B8C2F8370C1E0D0E002C0CC0FDD1F88
:101D60008A95E2F7C22BD32BDC680DCFDC2FCC2772
:101D7000C16FD06A08CFC1E0D0E002C0CC0FDD1F38
:101D80002A95E2F720E2929FC0011124C82BD92B9B
:101D9000EBCFDC2FCC27C46FD06AF5CE8C2F0E94FE
:101DA000300DC82FD0E0DC2FCC27CC27DF71D062DC
:101DB000EACE8C2F8F700E94300D34E0D695C795F7
:101DC0003A95E1F7CF709C2FEC01D069DCCEC9E3E6
:101DD000D0E0D9CEC2EED0E0D6CEC6EED0E0D3CEA3
:101DE00080917E03882331F010927E03109261026D
:101DF000109260020895809590913C0398239093EF
:101E00003C030895809590917F03982390937F03DE
:101E1000089510923F0210923E0210923D020895E2
:101E200080913C02811110923C02089580913B0206
:101E300090910A02981301C008958F5F8770FACFBE
:101E4000AF92BF92CF92DF92EF92FF920F931F93C8
:101E5000CF93DF93E090BD02F090BE0220919A02F2
:101E600030919B02E22AF32ACFE0D0E0CC24C39445
:101E7000D12C082F10E025E0929F000D111D112498
:101E800038E2A32EBC2EC6010C2E02C0880F991F6B
:101E90000A94E2F78E219F21892B79F4219790F7FC
:101EA000B12C8B2DDF91CF911F910F91FF90EF906F
:101EB000DF90CF90BF90AF900895AC9EF001AD9EA3
:101EC000F00D1124E00FF11FEE0FFF1FE056FE4F43
:101ED000859194910E94730D019701F3E2CFCF9306
:101EE000DF93EC010E94200FEC2FF0E095E0D99FEA
:101EF000E00DF11D112498E2899FE00DF11D1124E0
:101F0000EE0FFF1FE056FE4F85919491DF91CF9128
:101F10000C94730DE92FEE0FEE0F9E0F890F982F83
:101F2000977086958695869524E0829FF00111240E
:101F3000E051FE4F50E040E080E0219130E0092E7A
:101F400002C0369527950A94E2F721703327042EB4
:101F500001C0220F0A94EAF7822B4F5F5F4F443093
:101F6000510559F70895E92FEE0FEE0F9E0F890FD7
:101F7000982F977041E001C0440F9A95EAF7869533
:101F80008695869594E0899FF0011124E051FE4FDB
:101F900030E020E070E05191DF011197CB01022E7B
:101FA00002C0969587950A94E2F7817081958527FE
:101FB000842385278C932F5F3F4F2430310559F7B9
:101FC0000895FC01808191810E946F0F92959F700E
:101FD000963091F058F4925F9F70923058F4803FA1
:101FE00019F030F4883E30F481E008959A5FF4CF20
:101FF000843FD1F380E00895883EB0F3813FD1F76C
:10200000F3CF1F93CF93DF9300D000D00F92CDB7C3
:10201000DEB749835A8389819A81662331F122236D
:1020200021F10E94200F182F682F89819A810E9428
:10203000B30F8A81E981F0E095E0899FE00DF11D01
:10204000112488E2189FE00DF11D1124EE0FFF1FEF
:10205000E056FE4F859194910F900F900F900F9046
:102060000F90DF91CF911F9108950E948A0F182F32
:10207000E0CF9C013A9521153F4150F5FC01EE2738
:10208000F170BC0166277270AC01442754709C014A
:102090002227387094FF0EC080E1EF2B09F480E016
:1020A000672B09F08062452B09F08064232B89F0AF
:1020B0008068089581E0EF2B09F480E0672B09F038
:1020C0008260452B09F08460232B19F08860089505
:1020D00080E0089580934B0370934D0360934C030D
:1020E00080917303843001F583E08093E9008FEFE2
:1020F0009091E800815095FD06C095ED9A95F1F715
:1021000000008111F5CF8091E80085FF0DC050E0FF
:1021100040E063E070E08BE493E00E94FF0A80916E
:10212000E8008E778093E8000895BC0184E00C9469
:102130006A10BC0183E00C946A109C0182E08093D9
:10214000E9009FEF8091E800915085FD06C085ED84
:102150008A95F1F700009111F5CF8091E80085FF95
:102160000CC050E040E065E070E0C9010E94FF0A49
:102170008091E8008E778093E8000895CF93DF93F5
:10218000EC0180917E018823B1F18091490387FFA2
:1021900032C060E283E08093E9008FEF9091E80025
:1021A000815095FD06C095ED9A95F1F700008111DB
:1021B000F5CF8091E80085FF1BC080917E0170E023
:1021C00050E040E0811104C050E040E068E070E081
:1021D000CE010E94FF0A8091E8008E778093E8008C
:1021E00080E2FE01A1E5B3E001900D928A95E1F74E
:1021F000DF91CF91089568E081E0CDCF81E08093B9
:10220000E00080E28093D8001092C9008FE19EE444
:102210000197F1F700C0000087E090EBDC018093AC
:102220008B0390938C03A0938D03B0938E0388E16E
:102230009CE00FB6F894A895809360000FBE909331
:102240006000FFCF9F92AF92BF92CF92DF92EF924A
:10225000FF920F931F93CF93DF937C015B016A0181
:102260008091AE0201E010E08A3010F40AE010E044
:10227000C1E0D0E0F894B501C701F6010995982EA8
:102280000E94170D911004C021960C171D076CF4C5
:10229000892DDF91CF911F910F91FF90EF90DF90EB
:1022A000CF90BF90AF909F900895CC9F9001CD9F0D
:1022B000300D300D112490E080E045E34A95F1F7B0
:1022C0000000019682179307C1F7D4CF8091700266
:1022D000811110C08091D80080618093D8008AE17C
:1022E0008A95F1F700C08091D90080FF0AC081E093
:1022F0008093700281E090917002913009F080E04B
:10230000089582E0809370020E94AF0A10927303D6
:10231000F1CF0E946611811103C080913D030895A1
:10232000E0914003F0914103309721F00190F0815A
:10233000E02D099480E0089528E030E043E060E07B
:1023400080E30E94FD2E95E09A95F1F70000089534
:10235000CF93C82F0E949C118C2F0E94752F8FE75E
:1023600092E00197F1F700C000000E948D2FC82F66
:1023700095E09A95F1F700000E94A52F85E68A95D1
:10238000F1F700008C2FCF9108958FE00E94A811E3
:102390008F5F24E6829FC00111240895CF93DF93BD
:1023A000C82FD62F0E949C11C03511F0109239030E
:1023B0008C2F80680E94752F8D2F0E94752FEC0145
:1023C0008AEB8A95F1F700C00E94A52F83E492E082
:1023D0000197F1F700C00000CE01DF91CF91089581
:1023E00064E670E00E9493316150710968377105AD
:1023F00010F067E770E08FE00C94CE11CF93DF937D
:10240000209A0E94F52E109239030E94A52F0E9457
:102410009C110E94A52F66EB8BE30E94CE112FEF3B
:1024200085EA9EE0215080409040E1F700C0000026
:102430000E949C11E5EDEA95F1F700000E94A52F9E
:10244000F5EDFA95F1F700006AE58AE30E94CE11F6
:102450002FEF80E792E0215080409040E1F700C0EC
:10246000000082E00E94A81183E00E94A81184E08D
:102470000E94A81185E00E94A81186E00E94A81180
:102480006DE183E10E94CE11EFE3FCE93197F1F7B2
:1024900000C0000068E183E10E94CE110E949C11FF
:1024A00082EE0E94752FF0E5FA95F1F7C0E2D4E0D4
:1024B000FE0184910E94752FF0E5FA95F1F72196BF
:1024C00024E1CE31D207A1F78FE193E00197F1F734
:1024D00000C000008AE20E94A81160E080E10E9432
:1024E000CE110E94A52FEFE3FCE93197F1F700C070
:1024F000000080E496E00E94F0118FE99FE00197D0
:10250000F1F700C0000060E080E10E94CE1160EBB6
:1025100081E10E94CE1162E083E60E94CE1180E04C
:102520000E94A8118FE30E94A8118AE20E94A811BC
:102530002898DF91CF910895CF93DF93CDB7DEB781
:102540002A970FB6F894DEBF0FBECDBF85E0ECE250
:10255000F3E0DE01169601900D928A95E1F785E091
:10256000EEE1F3E0DE01119601900D928A95E1F71C
:1025700045E050E0BE016F5F7F4FCE0106960E949E
:102580000932892B61F0E0914003F09141033097CB
:1025900031F00480F581E02D8CE293E009951092F2
:1025A0002D0310922E0310922F031092300385E01A
:1025B000ECE2F3E0AEE1B3E001900D928A95E1F731
:1025C0002A960FB6F894DEBF0FBECDBFDF91CF9134
:1025D00008958EE090E00E94C13191E0811101C028
:1025E00090E0892F0895CF93DF93EC010E94E912C8
:1025F000811105C0CE01DF91CF910C94F011D093E1
:102600003603C0933503DF91CF91089580917D0308
:1026100086FF04C084E690E00C94F31287FF09C0A3
:102620008295837024E6829FC001112488539F4FB6
:10263000F3CF8F7028EC829FC001112480579E4FEA
:10264000EBCFCF93DF93EB018881843039F4809115
:102650007D038F7B80937D030E9406131882DF9198
:10266000CF910895DC01FB018C918130D9F419964A
:102670008C911997882361F082E0808390917D038B
:10268000892F8F7B96FF806480937D030C940613C3
:102690001A968C91882381F384E0808380917D0356
:1026A0008064F2CF823071F419968C911997811160
:1026B00007C01A968C91882319F085E080830895CD
:1026C00083E0FCCF81E0FACFCF92DF92EF92FF92CE
:1026D0000F931F93CF93DF93CDB7DEB769970FB6F4
:1026E000F894DEBF0FBECDBF0E946611882309F4A7
:1026F00078C16091310370913203809133039091DE
:1027000034030E943D0C672B682B692B09F469C1C7
:102710000E94680C609331037093320380933303FB
:10272000909334030E94E91281119EC040912C03C2
:1027300050912D0360912E0370912F0380913003EF
:102740000E94171920932C0330932D0340932E03DE
:1027500050932F036093300385E0ECE2F3E0DE0159
:10276000169601900D928A95E1F7C0902D03FC2CEE
:10277000F194FF8285E0FE013696DE0150960190CD
:102780000D928A95E1F785E0FE017096DE011196C3
:1027900001900D928A95E1F785E0FE013196ACE259
:1027A000B3E001900D928A95E1F785E0ECE2F3E069
:1027B000DE01559601900D928A95E1F700912D0367
:1027C00010912E03D0902F03E09030030E946611E9
:1027D000882309F4C6C080917D0386FF4FC02091F5
:1027E0002503309126032F0D311DF7FC3A953093C8
:1027F0002603209325038091230390912403810FC6
:10280000911D17FD9A959093240380932303A901AA
:1028100037FF04C044275527421B530B473051054F
:102820005CF0EE24EA941216130614F4EE24E394FA
:1028300010922603109225039C0197FF04C02227C3
:102840003327281B390B273031055CF0DD24DA945F
:102850001816190614F4DD24D39410922403109250
:10286000230310E000E055C085E0E7E2F3E0ACE2CE
:10287000B3E001900D928A95E1F76ECF87FD49C0D4
:102880002F2D0F2C000C330B1F14C4F04427552799
:10289000421B530B429FC001439F900D529F900DCE
:1028A000112468E170E00E94A731260F371F01E86C
:1028B00021383F4F8CF0062F0C190EC04F2D4402CB
:1028C000C001112468E170E00E94A731260F371F74
:1028D0000FE7203831057CF3212F012E000C330B3C
:1028E00011160CF46DC044275527421B530B429F11
:1028F000C001439F900D529F900D112468E170E03C
:102900000E94A731260F371F21383F4F0CF467C0B4
:10291000160F0E8B1F8BD88EE98E85E0FE01759603
:10292000DE011B9601900D928A95E1F785E0FE018C
:102930003B96DE01119601900D928A95E1F785E0B4
:10294000FE013196DE01169601900D928A95E1F70F
:1029500085E0FE013696DE01559601900D928A952E
:10296000E1F70E8B1F8BD88EE98E85E0FE01759600
:10297000DE01169601900D928A95E1F785E0FE0141
:102980003696DE011B9601900D928A95E1F785E05F
:10299000FE013B96ACE2B3E001900D928A95E1F71F
:1029A00069960FB6F894DEBF0FBECDBFDF91CF9111
:1029B0001F910F91FF90EF90DF90CF900C949C129D
:1029C0001102C001112468E170E00E94A731260FB6
:1029D000371F203831050CF49BCF1FE79ACF11E841
:1029E00098CF69960FB6F894DEBF0FBECDBFDF91CA
:1029F000CF911F910F91FF90EF90DF90CF900895AE
:102A0000DF92EF92FF920F931F93CF93DF937901A1
:102A1000C82F880FDD0B41155105A9F0FE0193E089
:102A2000EE0FFF1F9A95E1F7E050FF4F81819281F1
:102A30008F589D4F208130E04217530708F49A01C8
:102A4000A9010E941632CE010E941D31D82E882382
:102A5000D1F001151105B9F083E0CC0FDD1F8A9587
:102A6000E1F7FE01E050FF4F438150E004171507E6
:102A700008F4A801C050DF4F6C817D816F587D4FF5
:102A8000C7010E9416328D2DDF91CF911F910F91BA
:102A9000FF90EF90DF9008950F931F93CF93DF93F4
:102AA00000D00F92CDB7DEB76091A4027091A5025D
:102AB0008091A6029091A7020E943D0C41E06436ED
:102AC00071058105910508F440E030917F03398359
:102AD000643671058105910520F420917F0223134E
:102AE00041E090913C039A83411106C041E020915E
:102AF0008002291301C040E090917E039B83411125
:102B000005C08091810211E08917C9F010E000E052
:102B100030E020E043E050E0BE016F5F7F4F86E091
:102B20000E940015182F882351F00E94680C6093B2
:102B3000A4027093A5028093A6029093A702812F0E
:102B40000F900F900F90DF91CF911F910F910895EB
:102B50000F931F93CF93DF9300D000D0CDB7DEB794
:102B600060919202709193028091940290919502EB
:102B70000E943D0C11E0643671058105910538F124
:102B80000E946611882369F10E94680C6E5F7F4F76
:102B90008F4F9F4F69837A838B839C8310E000E083
:102BA00030E020E044E050E0BE016F5F7F4F82E004
:102BB0000E940015182F882351F00E94680C609322
:102BC0009202709393028093940290939502812FC6
:102BD0000F900F900F900F90DF91CF911F910F9159
:102BE00008950E94680C0091AF021091B0022091EC
:102BF000B1023091B202600F711F821F931FC6CFC6
:102C0000AF92BF92CF92DF92EF92FF920F931F93FA
:102C1000CF93DF93C82F7B01D42F69015801FB01AB
:102C200060817181828193810E943D0C64367105BF
:102C30008105910510F4DD23F9F010E000E030E0AB
:102C400020E0A501B6018C2F0E940015C82F882313
:102C500039F00E94680CF70160837183828393834B
:102C60008C2FDF91CF911F910F91FF90EF90DF900C
:102C7000CF90BF90AF900895C1E0F2CF0F931F9314
:102C8000CF93DF930F92CDB7DEB70E94891189836E
:102C900041E090917E02981301C040E001E010E015
:102CA0009E012F5F3F4F60EA72E085E00E940016B0
:102CB0000F90DF91CF911F910F9108950F931F9364
:102CC00041E020917A0230917B028091BD02909187
:102CD000BE022817390709F440E002E010E02DEBAE
:102CE00032E06CE972E083E00E9400168823B1F0C4
:102CF00041E020917C0230917D0280919A02909176
:102D00009B022817390709F440E002E010E02AE9A5
:102D100032E066E972E084E00E9400161F910F9194
:102D200008957F928F929F92AF92BF92CF92DF923F
:102D3000EF92FF920F931F93CF93DF930F92CDB734
:102D4000DEB7762E4A015901680101E010E09E01CC
:102D50002F5F3F4F50E040E070E060E00E940015C0
:102D6000182F882309F43EC0F401608171818281AB
:102D700093810E943D0C643671058105910538F4FC
:102D8000B701C6010E94FF0C9981891759F187018B
:102D9000950150E040E070E060E0872D0E94001552
:102DA000B82EB701C6010E94FF0C11E0998198135B
:102DB00010E01B2139F00E94680CF40160837183DC
:102DC00082839383812F0F90DF91CF911F910F9179
:102DD000FF90EF90DF90CF90BF90AF909F908F903B
:102DE0007F900895A701B601C5010E941632EACF6F
:102DF000EF92FF920F931F93CF93DF93CDB7DEB780
:102E00002A970FB6F894DEBF0FBECDBF0E94E9121D
:102E100011E0882309F44DC085E0E82EF12C03E889
:102E200012E09E012A5F3F4F4AEA52E068E087E0E5
:102E30000E949116182F882391F085E0FE013696A6
:102E4000DE01119601900D928A95E1F785E0FE0171
:102E50003196A7E2B3E001900D928A95E1F7E090F8
:102E60003503F0903603FA82E982E114F10409F1A6
:102E700042E050E0BE016F5F7F4F88EA92E00E941F
:102E80000932892BB1F0F0928902E092880210E0B9
:102E900000E030E020E042E050E068E872E089E0E5
:102EA0000E940015182F882321F0F092A902E092C9
:102EB000A802812F2A960FB6F894DEBF0FBECDBFB1
:102EC000DF91CF911F910F91FF90EF900895CF92D6
:102ED000DF92EF92FF920F931F93CF93DF9300D077
:102EE00000D0CDB7DEB76B0184E0E82EF12C02E70D
:102EF00012E09E012F5F3F4F4EE852E061E080E01C
:102F00000E949116882361F049815A816B817C81EE
:102F100040938A0250938B0260938C0270938D02CF
:102F200040918A0250918B0260918C0270918D02C7
:102F3000F60140835183628373830F900F900F904B
:102F40000F90DF91CF911F910F91FF90EF90DF9045
:102F5000CF90089569EE7EEF90E080E00E94F3311B
:102F600060E082E090E00E94D53160E083E090E094
:102F70000E94D53110929B0210929A0260E084E088
:102F800090E00E94D53160E082E290E00E94D5316D
:102F900060E085E090E00E94D53160E086E090E05E
:102FA0000E94D5316FEF87E090E00E94D53140E07C
:102FB00050E0BA0188E090E00E94E73160E08DE0E7
:102FC00090E00E94D53140E050E0BA0188E190E005
:102FD0000E94E73160E087E190E00E94D53140E057
:102FE00050E0BA018CE190E00E94E73170E060E0CF
:102FF00080E290E00E94F33140E050E0BA0188E1C5
:1030000090E00E94E73110927D0340E050E0BA0169
:103010008FE090E00E94E7310C9406131F920F920C
:103020000FB60F9211242F933F934F935F936F939B
:103030007F938F939F93AF93BF93EF93FF93809171
:10304000E10082FF09C08091E20082FF05C080910B
:10305000E1008B7F8093E1008091DA0080FF24C043
:103060008091D80080FF20C08091DA008E7F80930D
:10307000DA008091D90080FF9DC080E189BD82E1A6
:1030800089BD09B400FEFDCF81E080937303809178
:103090004E03811109C00E94AF0A0E947A0B8091F1
:1030A000E20084608093E2008091E10080FF17C01D
:1030B0008091E20080FF13C08091E2008E7F8093B8
:1030C000E2008091E20080618093E2008091D8006C
:1030D00080628093D80019BC85E08093730380914F
:1030E000E10084FF2BC08091E20084FF27C080E1D3
:1030F00089BD82E189BD89B5982F917080FFFBCF92
:103100008091D8008F7D8093D8008091E1008F7EE0
:103110008093E1008091E2008F7E8093E2008091B5
:10312000E20081608093E20080917403882309F4B7
:1031300047C084E080937303809173038091E10022
:1031400083FF27C08091E20083FF23C08091E100CC
:10315000877F8093E10082E0809373031092740371
:103160008091E1008E7F8093E1008091E2008E7F6C
:103170008093E2008091E20080618093E20042E06F
:1031800060E080E00E94480B8091F00088608093AE
:10319000F000FF91EF91BF91AF919F918F917F913F
:1031A0006F915F914F913F912F910F900FBE0F90B4
:1031B0001F90189519BC1092730310924E0374CF90
:1031C0008091E30087FD93E090937303B5CF7894EB
:1031D0001F921FB61F9211248F939F93AF93BF939B
:1031E0008091450390914603A0914703B091480315
:1031F0000196A11DB11D8093450390934603A093B2
:103200004703B0934803BF91AF919F918F911F9057
:103210001FBE1F9018952FB7F89480914503909189
:103220004603A0914703B09148032FBF08959F9292
:10323000AF92BF92CF92DF92EF92FF920F931F93C4
:10324000CF93DF93CDB7DEB72A970FB6F894DEBFE2
:103250000FBECDBF4E83052F5F83162F68877987FA
:103260008A8780913903811107C060E080E50E9460
:10327000CE1181E0809339030E949C1180E50E9469
:10328000752F8AEB8A95F1F700C00E948D2FB82E1A
:103290000E948D2F0E948D2F7C010E948D2F982ED1
:1032A0000E948D2F6C010E948D2FA82E8B2D877070
:1032B00011F0109239030E94A52FB3FC2DC0B7FE68
:1032C0002BC08091370390913803892B31F40E94F1
:1032D0000B199093380380933703F92801E880E8AD
:1032E000E816F1044CF4002711270E191F090038C5
:1032F000110514F00FE710E0DA2811E880E8C8168D
:10330000D10454F4882799278C199D098038910598
:1033100014F08FE790E0182F0F83188785E0FE01E7
:103320003696DE01119601900D928A95E1F729817A
:103330003A814B815C816D8170E080E090E02A965B
:103340000FB6F894DEBF0FBECDBFDF91CF911F91B6
:103350000F91FF90EF90DF90CF90BF90AF909F9034
:103360000895CF93C82F80914A0382FD0CC08091AD
:103370007E038C1741F00E940B1990936102809399
:103380006002C0937E03CF91089580917F03909156
:103390003C03892B8093CA0180917E03882329F105
:1033A0000E940B192091600230916102821B930BE5
:1033B0008C3D954010F00E94F00E8091CA019091D2
:1033C0007E03892B8093CA0180917E018823D9F1E5
:1033D0008091490387FF37C08EE1ECECF1E090E08B
:1033E000815098F591110E94F00E40E250E060E4A7
:1033F00072E08AEC91E00E940932892B59F180E257
:10340000EAECF1E0A0E4B2E001900D928A95E1F7D8
:10341000E0914003F09141033097E1F080917E010B
:10342000882359F08091490387FF07C08091CA0122
:103430008093CB0186E08093CA010280F381E02D66
:103440008AEC91E0099486E0C8CF2191222341F2D1
:103450009F5FC6CF0895CF93DF93EC0181E0898B06
:1034600080917F039F81892B80937F0380913C0310
:103470009885892B80933C030E94C519EA81FB81C2
:10348000309739F06C897D89CE010696DF91CF9116
:103490000994DF91CF910895EF92FF920F931F93BC
:1034A000CF93DF93EC018A85811134C0EB80FC80DF
:1034B00087E5F81A26E12E9DC0012F9D900D11245D
:1034C000DC01A859BE4F1496ED91FC9115973097E9
:1034D00031F054966D917C9182599E4F099586E109
:1034E0008E9D80018F9D100D112408591E4FF801EB
:1034F00087810E94020FF80180850E94FB0E0E94C6
:10350000C519188219861B861E821D8210923B03E4
:1035100010923A03DF91CF911F910F91FF90EF909E
:10352000089590E080E00E94E90C90E080E00E9425
:10353000D30C10923C030C94C5199093BE02809357
:10354000BD020C94911A21E030E002C0220F331F1B
:103550008A95E2F7209530958091BD029091BE0248
:10356000822393230C949D1A90913F028095892386
:1035700080933F02282F277091F4282F082E000CEB
:10358000330B9217130659F090914A0392FD07C02E
:103590008595859585950E94A31A0C94090F089529
:1035A000CF93C0914A03C2FB992790F9981799F0DD
:1035B00080FBC2F9C0934A036091490384E090E024
:1035C0000E94D5316C2F82E290E00E94D53182E0DA
:1035D000CF910C94B41ACF91089521E030E002C04D
:1035E000220F331F8A95E2F78091BD029091BE02AF
:1035F000822B932B0C949D1A90939B0280939A029A
:103600000C94911A80917E01ECECF1E0882359F042
:103610008091490387FF07C08EE1DF011D928A95E3
:10362000E9F70C94911A86E0F8CF1F93CF93DF93BC
:10363000CDB7DEB7AA970FB6F894DEBF0FBECDBFE9
:1036400085E793E02091F100DC012D93CD01B3E0FB
:103650008D379B07B9F780917603833009F472C0E8
:10366000B8F4813009F449C0823009F4B5C08091C2
:10367000E80083FF88C280917503909176039A30A9
:1036800008F081C2E92FF0E0EF5DFD4C0C94BB31F6
:103690008A3009F490C08B3009F471C0893039F751
:1036A00080917503813219F78091790390917A03A3
:1036B000009711F00297D9F68091E800877F8093F8
:1036C000E8008091E80082FF38C09091F30080917B
:1036D000F200029731F48091F100813011F08630D0
:1036E00021F48091F100809350038091E8008B7762
:1036F0008093E8000E94290BBACF80917503813A2C
:1037000009F0B5CF8091E800877F8093E800809131
:10371000790390917A03892B61F460E281E593E06B
:1037200070E00E94DB0B8091E8008B778093E800CB
:103730009ECF60E090E080E0F3CF80917303811131
:10374000C0CF95CF80917503813A09F090CF8091D9
:10375000790390917A03892B09F089CF8091E80051
:10376000877F8093E8008091E80080FFFCCF809104
:103770007E018093F1008091E8008E77B9CF80912F
:103780007503813209F073CF8091790390917A03A8
:10379000892B09F06CCF8091E800877F8093E80047
:1037A0000E94290B8091770380937E0110927F0302
:1037B0000E94021B5CCF80917503813209F057CFC4
:1037C0008091E800877F8093E8000E94290B809118
:1037D000780380934F034BCF80917503813A09F0B2
:1037E00046CF8091E800877F8093E8008091E800D1
:1037F00080FFFCCF80914F03BCCF803899F0823896
:1038000009F0C1C1809179038F70873008F0BBC186
:103810008093E9008091EB0085FB882780F9109266
:10382000E90006C08091710390917203911182604A
:103830009091E800977F9093E8008093F1001092B8
:10384000F1008091E8008E779AC1882309F488C13D
:10385000823009F098C18091770381118BC18091EA
:1038600079038F702FEF280F263008F08CC18093DA
:10387000E9002091EB0020FF7DC1933031F480916D
:10388000EB0080628093EB0075C19091EB0090613A
:103890009093EB0021E030E001C0220F8A95EAF717
:1038A0002093EA001092EA008091EB008860EACF52
:1038B000811169C1109177031F778091E3008078AF
:1038C000812B8093E3008091E800877F8093E8005C
:1038D0000E94290B8091E80080FFFCCF8091E300DB
:1038E00080688093E30082E0111183E0809373038A
:1038F0004AC18058823008F046C120917703309148
:1039000078032C3DE3E03E07A1F583E08A838AE259
:1039100089834FB7F894DE01139620E03EE051E230
:10392000E32FF0E050935700E49120FF03C0E295AD
:10393000EF703F5FEF708E2F90E0EA30C0F0C796D7
:103940008D939D932F5F243159F74FBF8091E800ED
:10395000877F8093E8006AE270E0CE0101960E94C2
:10396000DB0B8091E8008B778093E8000CC1C09658
:10397000E7CF8091790390917A03432F5527433005
:10398000510509F44AC078F54130510509F47AC06F
:1039900084E590E0EEE1F4E14230510509F0F3C036
:1039A0002091E800277F2093E80020917B0330914D
:1039B0007C038217930708F49C0140E02115310530
:1039C00009F065C0411163C08091E80082FDC9CF54
:1039D00080917303882329F2853019F28091E800E1
:1039E00083FFF2CFBECF4132510509F43CC04232D1
:1039F000510509F0C8C08330910508F0C4C0FC012E
:103A0000EE0FFF1FE554FE4F0190F081E02D88542A
:103A10009E4FDC018C9190E01AC033272130310594
:103A2000D1F02115310561F02230310509F0ABC02C
:103A3000E4E8F4E1E4918E2F90E0E4E8F4E107C0DB
:103A4000E6EEF4E1E4918E2F90E0E6EEF4E10097EB
:103A500009F499C0A5CFE0ECF4E1E4918E2F90E059
:103A6000E0ECF4E1F4CF8330910508F08CC0880FCE
:103A7000991FFC01EF53FE4F0190F081E02D89E08A
:103A800090E08ECF82E190E0E2E7F4E189CF80918F
:103A90007303882309F465CF853009F462CF8091E0
:103AA000E80083FD5ECF8091E80082FD8DCF80919C
:103AB000E80080FF83CF9091F3008091F200211500
:103AC000310519F08830910550F041E0089709F070
:103AD00040E08091E8008E778093E8006FCF4491BA
:103AE0004093F1003196215031090196E8CF80389A
:103AF00009F049C08091E800877F8093E8008091B9
:103B000074038093F1009DCE81113DC01091770325
:103B10001230C8F58091E800877F8093E800109309
:103B200074030E94290B112311F084E005C08091D9
:103B3000E30087FDFACF81E08093730342E061ECFC
:103B400081E00E94480B42E061EC82E00E94480B59
:103B500042E261EC83E00E94480B8091730313C042
:103B600080917703813079F481E0933009F080E02F
:103B7000809372031092E9008091E800877F809320
:103B8000E8000E94290B8091E80083FF0AC0809121
:103B9000E800877F8093E8008091EB00806280934B
:103BA000EB00AA960FB6F894DEBF0FBECDBFDF9133
:103BB000CF911F9108951F920F920FB60F9211246B
:103BC0002F933F934F935F936F937F938F939F9325
:103BD000AF93BF93CF93DF93EF93FF93D091E9001F
:103BE000DF708091EC00C82FC17080FDC0E810929A
:103BF000E9008091F000877F8093F00078940E9424
:103C0000151B1092E9008091F00088608093F0000D
:103C1000CD2BCF70C093E900FF91EF91DF91CF9151
:103C2000BF91AF919F918F917F916F915F914F91D4
:103C30003F912F910F900FBE0F901F9018958823E2
:103C400021F00E94FB0E0C94C5190895882339F0C9
:103C500090913C03982B90933C030C94C5190895C4
:103C6000882321F00E94020F0C94C519089588231F
:103C700039F090917F03982B90937F030C94C51992
:103C80000895882341F19CEF980F913A38F4682FFA
:103C90008AEC91E00E94740C0C94C51990E2980F84
:103CA000983050F4877091E001C0990F8A95EAF737
:103CB000892F0E94020FF0CF9BE5980F933020F4DC
:103CC00090E080E00C94E90C885A873120F490E071
:103CD00080E00C94D30C0895CF93DF93EC010E9405
:103CE000411ECE010E9439109E01205E310928300C
:103CF000310510F0CD2B21F4DF91CF910C94301EC3
:103D0000DF91CF910C941F1E0F931F93FC01862F00
:103D100024173507A1F0D80112969C9191110FC07C
:103D20002330B4E53B0770F4213094E5390738F4CB
:103D30002B32A1E43A0719F02932324471F41F9171
:103D40000F910895293C9DE5390738F02E3CADE5EB
:103D50003A07A8F3223E3D4591F39081913029F036
:103D6000923069F783E08083EACF10821F910F9130
:103D70000C94411ECF93C82F882309F467C08CEFA1
:103D80008C0F813AC0F580917E01882311F18091DA
:103D9000490387FF1EC0EC2FE695E695E695F0E017
:103DA000E653FE4F828190E04C2F477021E030E0D7
:103DB00002C0220F331F4A95E2F782239323892BF7
:103DC00091F06C2F8AEC91E00E94740C0E94C5194E
:103DD0000AC0ECECF1E082ED91E02191C21789F389
:103DE0008E179F07D1F76C2F8AEC91E00E949E0CF2
:103DF000CF910C94C51980E28C0F883068F4C7709D
:103E000021E030E001C0220FCA95EAF780917F03DC
:103E1000822B80937F03ECCFEBE5EC0FE33040F493
:103E2000F0E0EB57FE4F808190E0CF910C94E90CCD
:103E3000C85AC73158F4EC2FF0E0EE0FFF1FE857D7
:103E4000FE4F80819181CF910C94D30CCF91089536
:103E5000CF93DF93EC010E9439109E01205E31095F
:103E60002830310510F0209739F40E94371E8C2F2E
:103E7000DF91CF910C94BA1E0E94261EF8CFCF93EB
:103E8000DF93EC010E94281FC933D10549F42FEFBD
:103E900087EE93E0215080409040E1F700C00000A1
:103EA000CE01DF91CF910C946C1E0F931F93CF9393
:103EB0008B0120918003309181032115310511F18F
:103EC0004091820350918303452BE1F082131AC085
:103ED00090917E0380917F03892B0E94300DC82F23
:103EE00010927F03C8010E943F1FC0937F038091FF
:103EF0008203909183030E943F1F81E0CF911F9125
:103F00000F91089580E0FACF809180039091810312
:103F10000797E9F480918203909183030797B9F49E
:103F200083E394E10E943F1F10928103109280036B
:103F300010928303109282031092850310928403DF
:103F4000109286031092880310928703089568E008
:103F500074E188E00E94551F8111E6CF65E374E1AA
:103F600084E00E94551F8111DFCF6CE074E18CE08A
:103F70000E94551F8111D8CF68E174E188E10E9449
:103F8000551F8111D1CF61E174E181E10E94551F7C
:103F9000CBCF7F928F929F92AF92BF92CF92DF92C0
:103FA000EF92FF920F931F93CF93DF93CDB7DEB7BE
:103FB0002F970FB6F894DEBF0FBECDBF8E010F5FF7
:103FC0001F4F88E0D8011D928A95E9F790E5E92E08
:103FD00091E0F92E25E5C22E21E0D22E77247394AC
:103FE000AA24A394B12C49E5842E41E0942EF70134
:103FF00081917F018F3F09F444C0F894E82FE29546
:10400000EF70F0E021A18F70A50102C0440F551F91
:104010008A95E2F7CA01922F982B91A392A18095DD
:10402000892382A30E94170D00C065E571E0F801A5
:10403000472D4095DB019D91BD0180819F3F09F493
:1040400077C0292F22952F7030E0D90190962C91BE
:1040500030E09F7002C0359527959A95E2F720FDD4
:1040600067C08729808331968616970619F7F7016E
:10407000319780818F3F11F00E94190DB0EABA95F7
:10408000F1F7770CCE14DF0409F0B1CF48E050E02F
:10409000B80183EB92E00E9409327C01892B41F048
:1040A00088E0F801A3EBB2E001900D928A95E1F768
:1040B0001091BC02E114F104E9F181E08093640203
:1040C0000E940B19909363028093620280916202B6
:1040D000909163020E94590C059790F0E12FF0E057
:1040E000E054FD4F8091B30280838091B4028183BC
:1040F0008091B50282838091B6028383109264021C
:1041000081E090E0EF28D1F02F960FB6F894DEBF53
:104110000FBECDBFDF91CF911F910F91FF90EF9018
:10412000DF90CF90BF90AF909F908F907F90089539
:10413000842398CF809164028111C8CF0E946611B8
:10414000F82EE091BC02882309F4AAC019861A86C9
:104150001B861C860E2F10E000541D4F8091AE026E
:104160008A3008F067C047E657E1BE01675F7F4FBE
:10417000C8010E942211882309F481C048EA55E150
:10418000BE01675F7F4FC8010E942211882309F496
:1041900076C04EE556E1BE01675F7F4FC8010E94C1
:1041A0002211882309F46BC04EE356E1BE01675F1C
:1041B0007F4FC8010E942211882309F460C04CE49B
:1041C00055E1BE01675F7F4FC8010E94221188231D
:1041D00009F455C048EF56E1BE01675F7F4FC80143
:1041E0000E942211882309F44AC01092AE028091E5
:1041F000BB0290E044E050E0BE01675F7F4F805417
:104200009D4F0E94093221E020936F02892B49F5CE
:10421000F12C80918603882359F080918703909137
:1042200088030E94590C893E934010F00E94841F1D
:104230008F2D6ACF80916502909166020E94590C81
:10424000843F914008F08FCF80916F02882301F363
:10425000FE01399684E0DF011D928A95E9F71092FC
:104260006F02E091BB02F0E0E054FD4F89859A8532
:10427000AB85BC8580839183A283B383CACF8091B1
:10428000AE028F3F31F08F5F8093AE028A3008F428
:10429000AECF0E940B199093660280936502D4CF33
:1042A000F0E0E054FD4FF89484E0A2E7B2E0019022
:1042B0000D928A95E1F764E070E082E792E00E9457
:1042C000FF0C809371020E94170DF894C090760243
:1042D000D0907702E0907802F090790280916B02A2
:1042E00090916C02A0916D02B0916E02C816D90631
:1042F000EA06FB06D1F0C0926B02D0926C02E0920B
:104300006D02F0926E020E94661181110EC00E9431
:10431000680CC61AD70AE80AF90AC092AF02D0920E
:10432000B002E092B102F092B2020E94170DF8942E
:1043300080917A0290917B029093BE028093BD029D
:1043400080917C0290917D0290939B0280939A02CF
:104350000E94170DF89480917E0280933D030E9485
:10436000170DF89480917F0280937F0380918002E3
:1043700080933C03809181020E94B1190E94170D25
:10438000F8940E94E912811156C060916702709101
:1043900068028091690290916A020E943D0C672B2D
:1043A000682B692B09F447C00E94680C6093670270
:1043B000709368028093690290936A020E94C5110B
:1043C0009F878E870091880210918902011511053F
:1043D00071F042E050E0BE01625F7F4F88E892E0FA
:1043E0000E940932892B19F0C8010E94F0118E0138
:1043F000075F1F4F85E0F82EF8012F2D11922A95A7
:10440000E9F749855A856B857C858D850E9417194A
:1044100029873A874B875C876D87F801A3E8B2E06C
:1044200001900D92FA94E1F765E070E0C8010E94F6
:10443000FF0C809382020E94170D80E065CE282F2A
:104440008091BF02882331F0CB019560222329F0AF
:104450000C94281FCB019860F9CF0C946C1E282F68
:104460008091BF02882331F0CB019860222329F08C
:104470000C94281FCB019160F9CF0C946C1E0F9304
:104480001F93CF93DF93EC01862FBA01F80152817D
:1044900026173707A9F49881552339F0911102C0E6
:1044A0000E94BA1E82E0888304C0923039F09330B3
:1044B000B9F0DF91CF911F910F91089581E0F3CF73
:1044C0005523B9F32130F4E53F0798F3233094E501
:1044D000390718F0223E3D4561F79881992349F349
:1044E0001882DF91CF911F910F910C94411E9091F2
:1044F0004A0392FD10C098E0899F90011124622B1D
:1045000060933F020E94ED1A0E940B1990933E02A5
:1045100080933D0208950C94ED1A8F929F92AF9272
:10452000BF92CF92DF92EF92FF920F931F93CF93A0
:10453000DF93CDB7DEB72F970FB6F894DEBF0FBE6F
:10454000CDBF7C01DC0113968D919C911497892B32
:1045500049F04C9111965C911197842F85238F3FE0
:1045600009F016C52F960FB6F894DEBF0FBECDBF6B
:10457000DF91CF911F910F91FF90EF90DF90CF903F
:10458000BF90AF909F908F900895D80116968C9110
:1045900016978823E9F019968D919C918A159B05B1
:1045A00039F480913A0390913B038A159B0581F081
:1045B000F8019786B486A3868189811103C0C8015A
:1045C0000E942B1AC80106960E944C1A10923C03B6
:1045D000FFEFCF1ADF0A0A5E1F4FF6C481E0809317
:1045E00086030E940B1990938803809387032DC53F
:1045F000809186038823C9F0F70182818823A9F07E
:10460000A114F0E4BF06E0F0A11420E5B20628F002
:10461000C50190568115904298F4D70115968C915A
:10462000807F8501112781110CC0F501E85AFD45F5
:10463000EA33F10508F063C0E55DFD4C0C94BB3135
:1046400085010832110519F40E94841FFEC404304C
:10465000110558F30A33110528F0C8019A95811500
:104660009F4118F790917E0380917F03892B0E94D0
:10467000300D827209F0126080918403909185035D
:104680009C012F5F3F4F3093850320938403880F55
:10469000991FFC01E058FC4F118300830E940B1905
:1046A000909388038093870380918403909185037E
:1046B00002970CF4CAC4C8CFF701D280DD2009F4F8
:1046C00063C08091BF0291E089278093BF02BEC47E
:1046D0000CE60A0DD70112968C918823A9F18091DE
:1046E0003C02827269F110917F031272812F0E9445
:1046F000301E802F0E94BA1E812F0E94371EF9E2C1
:10470000AF16B10409F49BC122EEA2162DE5B20644
:10471000D9F50E94F00E80913F028595859585958B
:1047200019F082E00E94B41A81E090E000909A02B1
:1047300002C0880F991F0A94E2F70E949D1A85C44F
:10474000802F0E94BA1EDBCF802F0E94411ED7CF40
:10475000F701D280DD20A9F080913C02827269F0DD
:1047600010917F031272812F0E94301E81E30E94FC
:10477000BA1E812F0E94371E69C481E30E94BA1EAF
:1047800065C481E30E94411EDD24D3945FC4D70138
:104790001296DC90DD2071F080913C02827241F033
:1047A00010917F031272812F0E94301E86E3DFCFAB
:1047B00086E3E4CF86E3E6CFF701D280DD2071F017
:1047C00080913C02827241F010917F031272812F1E
:1047D0000E94301E87E3CBCF87E3D0CF87E3D2CFD1
:1047E000D7011296DC90DD2071F080913C0282723C
:1047F00041F010917F031272812F0E94301E85E3D9
:10480000B6CF85E3BBCF85E3BDCFF701D280DD20F6
:1048100071F080913C02827241F010917F0312721C
:10482000812F0E94301E84E3A2CF84E3A7CF84E3CC
:10483000A9CFD7011296DC90DD2071F080913C0267
:10484000827241F010917F031272812F0E94301EFC
:104850008FE28DCF8FE292CF8FE294CFF701D2809B
:10486000DD2071F080913C02827241F010917F0353
:104870001272812F0E94301E80E379CF80E37ECFB9
:1048800080E380CFD7011296DC90DD2071F080911B
:104890003C02827241F010917F031272812F0E94BC
:1048A000301E83E364CF83E369CF83E36BCFF701EB
:1048B000D280DD2071F080913C02827241F0109133
:1048C0007F031272812F0E94301E88E350CF88E34D
:1048D00055CF88E357CFD7011296DC90DD2071F0D9
:1048E00080913C02827241F010917F031272812FFD
:1048F0000E94301E82E53BCF82E540CF82E542CF69
:10490000F701D280DD2071F080913C02827241F08B
:1049100010917F031272812F0E94301E81E527CFF4
:1049200081E52CCF81E52ECFD7011296DC90DD20DA
:1049300071F080913C02827241F010917F031272FB
:10494000812F0E94301E80E512CF80E517CF80E5D1
:1049500019CFF701D280DD2071F080913C02827284
:1049600041F010917F031272812F0E94301E8FE45C
:10497000FECE8FE403CF8FE405CF6BE170E0D7016B
:1049800012968C9104C066E070E0F70182810E946B
:104990002F22FACE69E170E0F2CF69E172E0F5CF43
:1049A0008091BF0281110AC083E198E0D70112967D
:1049B000DC90DD2031F00E94281F48C38CE298E093
:1049C000F5CF0E946C1EE0CE6AE170E0DECF67E1B9
:1049D00070E0D5CF61E170E0D8CF64E070E0CFCF78
:1049E00062E36A0D70E0625E7F4FF70182810E9490
:1049F0001F2285CE6CE270E0D70112968C910E9446
:104A00001F22C2CE6DE070E0F7018281F8CF6EE028
:104A100070E0F2CF60E570E0F7CF6FE470E0ECCFCC
:104A20006FE070E0F1CF6BE070E0E6CF66E370E03E
:104A3000EBCF67E370E0E0CF68E270E0E5CF0E9483
:104A4000F00E0E94100F82E20E94020F9DCE809510
:104A5000822354C3882309F4B4C3F80181898823CD
:104A600009F4AFC3C60182599E4F0E944C1AA9C3D4
:104A70003CE5A3163DE5B30609F445C08DE5A8164F
:104A8000B80609F0B6C380914A0382FB882780F9F3
:104A900091E089270E94D01AACC310927F030E9434
:104AA000021B9FEFA4E3BCE09150A040B040E1F7AF
:104AB00000C000000E94FE100E94AA1780913F02D1
:104AC000877009F44FCDF7018281882309F44ACD1C
:104AD00080914A0382FD46CD82E02F960FB6F8946E
:104AE000DEBF0FBECDBFDF91CF911F910F91FF9021
:104AF000EF90DF90CF90BF90AF909F908F900C94ED
:104B0000B41A81E0C7CF80E0C5CF812F902F0E94DB
:104B10008A0FD82E82C3E12FEF70DE2E107F19F09E
:104B2000D29490EFD922BB20B9F0DD2069F080E269
:104B3000800F883010F0811009C080917F03D82A3F
:104B4000D0927F030E94C519802F4AC080913C03F8
:104B5000D82AD0923C03F6CF802F0E94411EDD2040
:104B600009F440C0005E8D2D083010F0811003C0A4
:104B70000E94020F02C00E94FB0E0E94C51932C0A3
:104B8000F12FFF70DF2E107F103219F0D29480EFDA
:104B9000D8228820A1F021E0821609F49BC0BB2016
:104BA00009F4A4C0AA2009F479C0D70115968C9104
:104BB000159780FFC9CF8F7015968C936FC0809129
:104BC0004A0382FF50C0BB2009F446C0DD2039F003
:104BD00080917F03D82AD0927F030E94C51980E07C
:104BE0000E94BA1EE92DE850FF0B349710F40E9482
:104BF0008911CC20B1F080913F0280FD12C0D70115
:104C000012961C928595859585950E94ED1AC7018F
:104C10000E948D2280913F028595859585950E9401
:104C2000A31A20E0F7014081518162817381848160
:104C30002F960FB6F894DEBF0FBECDBFDF91CF9198
:104C40001F910F91FF90EF90DF90CF90BF90AF90AA
:104C50009F908F900C94011080E00E94411EDD20F7
:104C600009F28D2D85CFBB20E9F0A11004C0809101
:104C70007E038D2914C031E0A31206C080917E030B
:104C80008D290E94B119AECF82E0A812F0CF0E9408
:104C9000F00E80913C02D812D0923C028D2D0E94E1
:104CA000371EA0CFA11006C00E94F00E8D2D0E94CD
:104CB000301E98CF91E0A91208C080917F038D210A
:104CC00009F490CF0E94100FEFCFA2E0AA1609F4CA
:104CD00089CFEACFBB2029F0B5E0BA1508F482CF1E
:104CE000DDCFE4E0EA1508F47DCFE0CFAA20F1F2B1
:104CF000B9E38B1209C0EFEFF7EE23E0E150F0408B
:104D00002040E1F700C00000802F0E94411E6ACFC2
:104D1000812F86958695837061F0813009F062CF8E
:104D2000C8019370B11002C090E080E00E94D30CE3
:104D300059CFC8019370B11002C090E080E00E948A
:104D4000E90C50CF812F837009F03FC0B1104ACFDA
:104D5000402F429546954770440F440F802F8F7027
:104D600090E0042E02C0880F991F0A94E2F730E009
:104D700020E004FF09C02FE030E002C0220F331F03
:104D80004A95E2F7209530951695169513701230D6
:104D900099F078F440919A0250919B02113039F0C9
:104DA000822B932B842395230E94FC1A1BCF842BE8
:104DB000952B822B932BF8CF822B932B20919A0249
:104DC00030919B0282279327EFCF8695BB2011F06D
:104DD000812F8170882309F405CF402F4295469595
:104DE0004770440F440F802F8F7090E0042E02C054
:104DF000880F991F0A94E2F730E020E004FF09C011
:104E00002FE030E002C0220F331F4A95E2F72095D1
:104E10003095169516951370123099F078F44091EC
:104E2000BD025091BE02113039F0822B932B8423A6
:104E300095230E949D1AD6CE842B952B822B932BE3
:104E4000F8CF822B932B2091BD023091BE02822796
:104E50009327EFCF1F70BB2029F0812F0E94ED1AFE
:104E6000802F1DCF802F0E94301E812F0E94A31AF9
:104E7000B9CE802F32EF831699F1381570F090EF8C
:104E80008916D1F0A1EF8A1691F0BB2009F470C009
:104E9000A1105ACE812F8F7127C0B3EF8B1639F135
:104EA000E4EF8E12F2CF80914A0382FF2EC0812F51
:104EB0008F71BB20D9F218C0BB2069F0F4E0FA155D
:104EC00008F490CE1F7181E090E002C0880F991F16
:104ED0001A95E2F7B8CF25E02A1508F483CEF2CF71
:104EE000812F8F71B110C2CF0E94ED1A7BCE90E05E
:104EF00080E0BB2009F49DCF1F7181E090E002C0EB
:104F0000880F991F1A95E2F794CF80913C02BB203D
:104F1000D9F00E94020F80913F028770843041F4E3
:104F20000E94090F812F8F710E94A31AC12C5ACEA3
:104F300031E03A15D8F31F71812F0E94ED1A63E01A
:104F4000812F0E947722F2CF90917F03982B90932C
:104F50007F0381E08A1540F40E94090F0E94100F20
:104F600064E0812F8F71EDCF81E00E94B41ADECF13
:104F7000AA2059F0893309F0C7CE9FEFA7EEB3E01E
:104F80009150A040B040E1F7BDCE812F8F716ECF20
:104F900021E012966C91129713967C9113971496B8
:104FA0008C910E9401105C01F70182818823A1F09D
:104FB0008091660190916701019671F008E611E019
:104FC000D12CC12C99249394809166019091670112
:104FD0008C159D050CF0D9CA8701950149EC5DE55A
:104FE00062EE70E08BEE91E00E943F2295014AEC68
:104FF0005DE560EE70E08CEE91E00E943F2295014D
:105000004BEC5DE563EE70E08DEE91E00E943F2297
:1050100095014CEC5DE561EE70E08EEE91E00E9452
:105020003F2295014DEC5DE566EE70E08FEE91E07C
:105030000E943F22E7EAAE16EDE5BE0609F0D8CAA7
:10504000D70112968C918111C9CAD12C8701950183
:1050500049EC5DE562EE70E08BEE91E00E94841E0B
:1050600095014AEC5DE560EE70E08CEE91E00E9407
:10507000841E95014BEC5DE563EE70E08DEE91E0F2
:105080000E94841E95014CEC5DE561EE70E08EEEB1
:1050900091E00E94841E95014DEC5DE566EE70E0A6
:1050A0008FEE91E00E94841EDD2009F407CDC5013A
:1050B000815F91090897B8F5D70112963C9185E078
:1050C000ECE2F3E0DE01119601900D928A95E1F792
:1050D00085E0FE013196DE011B9601900D928A95C6
:1050E000E1F729814FE04A0D81E090E001C0880F8F
:1050F0004A95EAF7332309F4AACC822B8B8785E003
:10510000FE013B96DE01169601900D928A95E1F71D
:1051100085E0FE013696ACE2B3E001900D928A95EF
:10512000E1F70E949C12C50197558F3F910511F040
:1051300008F047C0209166013091670128173907B0
:1051400024F49093670180936601F701228136E190
:10515000389F6001399FD00C1124860108591E4FD9
:10516000D80150962C935097928116968C91169751
:10517000992309F46FCC1A96BC92AE9219978F5F5F
:1051800016968C930E940B19F8019687858780915B
:105190007E03878380913C0390917F03892B8087D6
:1051A0000190F081E02D309741F0D80154966D9137
:1051B0007C91C60182599E4F0995B0923B03A09203
:1051C0003A03D70112968C91882399F0BBE5AB1670
:1051D000BDE5BB0609F495CC08F04ACCA114FCE56A
:1051E000BF0609F45ACC2FEDA2162CE5B20609F43D
:1051F00063CCD70112968C9112971C9111960C9149
:10520000882309F482CC812F902F0E94200FD82E62
:10521000682F812F902F0E94B30FE12FF0E0B5E0AF
:105220000B9FE00DF11D112428E2D29EE00DF11D2F
:105230001124EE0FFF1FE056FE4F859194910E94BE
:10524000730D8C01882ED7011296BC90129715967B
:10525000AC90A2944FE0A42280913F028770C1F0ED
:10526000CB2CBB20B1F0812F807F803421F080E2F5
:10527000800F883068F080914A0382FD09C082E087
:105280000E94B41A80913F028770CC24C39481118C
:10529000C12C912E92942FE09222BBE0B91508F414
:1052A000A1CCE92DF0E0EB59FD4C0C94BB311F93E0
:1052B000CF93DF9380910902807FA9F48091060249
:1052C000882389F080913B02D0910A026091040208
:1052D00070910502A0910702B0910802C62FC72362
:1052E00016E0D81304C0DF91CF911F91089590E08C
:1052F000109711F0CF3F19F401968770F2CF189FE5
:105300009001199F300D1124F901E55FFD4F418196
:105310004713F2CF40814613EFCF42814111ECCFCA
:10532000438154814A1B5B0B4F3A510528F780910A
:1053300009028F70806180930902F901E05FFD4FDF
:1053400080818F708061808384E092E00E948D2252
:10535000DF91CF911F910C94160F8F929F92AF9275
:10536000BF92CF92DF92EF92FF920F931F93CF9352
:10537000DF93CDB7DEB761970FB6F894DEBF0FBEEF
:10538000CDBF8C0185E0F801DE011D9601900D92E4
:105390008A95E1F7F801D080C180E2808380948013
:1053A00020E0409104025091050260910602709144
:1053B0000702809108020E940110AC0184E0A82E2F
:1053C00082E0B82E609107027091080261157105A4
:1053D00009F445C19091040220910502892F82238E
:1053E0008F3F09F43CC1F0900602F401E61BF70B75
:1053F000FF2009F4FBC080910902382F307FEF3A7B
:10540000F10508F0BCC0F801418131117AC0FE2CD1
:10541000421324C02081291321C0E1101FC08F70C6
:10542000806180930902C5010E948D22809109024A
:10543000F80185838F2D61960FB6F894DEBF0FBEFD
:10544000CDBFDF91CF911F910F91FF90EF90DF9033
:10545000CF90BF90AF909F908F900895892829F0AA
:105460008D2D8C218F3F09F015C180E0F82FF17050
:10547000BF2E80FF3CC080913B0220910A0236E0A3
:10548000821315C0DD86CE868D859E850E946F0FA6
:10549000292F22952F702230F0F0243018F59F70BC
:1054A000F1F0F8019581907FD1F4B12C1EC090E00D
:1054B000389FF001399FF00D1124E55FFD4F4181C8
:1054C000C41206C04081D41203C04281E4120FC04E
:1054D00001968770D5CF9F7011F0882331F3805EDD
:1054E000883018F3C8010E948D22FB2CA3CFEE2038
:1054F00009F4A0CF80910902816080930902F12C08
:1055000099CF421312C0208129130FC0E1100DC0A2
:105510008583C8010E948D2286E0F801A4E0B2E0F4
:1055200001900D928A95E1F785CFC8010E94E10FA5
:10553000882309F1EE20F9F080910902803270F0A1
:10554000209104023091050238872F8319869B86AB
:105550008A868C87CE0107960E948D2286E0F8010C
:10556000A4E0B2E001900D928A95E1F70E945729DC
:10557000FF24F3945FCFC8010E948D22F9CF31112F
:105580000AC084E092E00E948D2286E0F50111922B
:105590008A95E9F7B4CFF801318132130FC0208129
:1055A00029130CC0E1100AC08583C8010E948D2216
:1055B00086E0F50111928A95E9F73CCFC8010E9477
:1055C000E10F8823C1F2EE20B1F28091090280320E
:1055D00028F220910402309105023A8329831B822C
:1055E0009D828C828E83CE010196B6CFEF3AF10573
:1055F000F8F6FE2CEE2009F4BECFF801818182136B
:1056000020C0808189131DC04C32F3E45F0709F488
:1056100083CF4832554409F47FCF9091090290FD21
:105620007BCF907F09F478CF80910902F8018583C0
:10563000903F09F46ECF982F907F905F8F70892BE9
:1056400067CFC8010E94E10F811188CF80910902C4
:10565000816080930902C8010E948D22EBCEEE206A
:1056600009F489CFC8010E94E10FF82E882309F4BC
:1056700082CF86E0F801A4E0B2E001900D928A9515
:10568000E1F780910402909105020E946F0F0E9441
:105690005729D0CE81E08E25E9CE1F93CF93DF939B
:1056A000CDB7DEB767970FB6F894DEBF0FBECDBF9C
:1056B0004B8B5C8B6D8B7E8B8F8B611110923C03BF
:1056C0001A8A198A85E0FE017396DE011D96019003
:1056D0000D928A95E1F780914A0382FD1CC00E94D9
:1056E0000B1920913D0230913E02821B930B8C3DA1
:1056F000954020F080913F0282FF81C00E940B19EB
:105700002091600230916102821B930B8C3D954089
:1057100010F00E94F00E86E0FE013D96DE01179625
:1057200001900D928A95E1F7CE0107960E94AD296E
:10573000882389F016E080913B0290910A02891338
:105740004BC067960FB6F894DEBF0FBECDBFDF919A
:10575000CF911F91089586E0FE013796DE011196E4
:1057600001900D928A95E1F78A859B85892B11F32B
:105770008F81988589238F3FE9F220910A0230E0DA
:10578000C90101968770992740913B024817190675
:1057900081F410927F030E94021B10920A02109261
:1057A0003B0286E0E4E0F2E0DF011D928A95E9F732
:1057B000C1CF96E0929FD001939FB00D1124A55FB9
:1057C000BD4FFE01319601900D929A95E1F78093BD
:1057D0000A020E94160FAECF819FC0011124855F7F
:1057E0009D4F0E94AD29882309F4ABCF80913B02E5
:1057F00090E001968770992780933B029CCF82E0CE
:105800000E94B41A7BCF1F921FB61F9211248F9350
:105810009F93AF93BF9380914403811113C08091F4
:10582000450390914603A0914703B09148034196E8
:10583000A11DB11D8093450390934603A093470398
:10584000B0934803BF91AF919F918F911F901FBE5E
:105850001F901895CDB7DEB72A970FB6F894DEBF24
:105860000FBECDBF84B7877F84BF0FB6F894A895CD
:1058700080916000886180936000109260000FBE8C
:1058800080E890E00FB6F8948093610090936100F7
:105890000FBE85B7806885BF85B7806885BF85E105
:1058A0009DE09093C9018093C8010E94AF0A0E94B5
:1058B0007A0B8091E20084608093E200789480917A
:1058C00073038823A1F01091E9001F709091EC0000
:1058D000892F817090FD80E8182B1092E90080914B
:1058E000E80083FD0E94151B1F701093E90082E001
:1058F00084BD93E095BD9AEF97BD80936E001092A2
:10590000AF021092B0021092B1021092B2020E9445
:10591000E912809359010E94661181110E94303072
:1059200080915901811124C080EF8093550186E652
:105930008093560184E98093570185E38093580151
:1059400085E0E0E8F1E0DE01119601900D928A9584
:10595000E1F78981809350018A81809351018B8185
:10596000809352018C81809353018D8180935401E7
:105970008091590194E0811190E09093BC0284E001
:10598000891B8093BB0200E511E0D8018D918D0148
:105990008F3F11F00E94190DB1E005351B07A9F7E3
:1059A00005E511E0F80181918F018F3F11F00E9410
:1059B000190DF1E009351F07A9F788E0E0ECF2E0E6
:1059C000DF01282F1D922A95E9F7E3EBF2E0DF01D2
:1059D0001D928A95E9F78FE090E00E94C9316F73BC
:1059E00060937D0390E080E00E94CF31893E9E4F1E
:1059F00011F00E94AA1782E090E00E94C1318093CA
:105A0000C80284E090E00E94C131182F82E290E049
:105A10000E94C131982F812F90934A0380934903AC
:105A20000E94C91FEFE3FCE93197F1F700C00000C5
:105A30000E94C91F0E94E912E4E08111E0E0F0E059
:105A4000E054FD4F808180FF08C06FEF7FEF90E052
:105A500080E00E94F3310E94FE1083E090E00E94FB
:105A6000C13190E00E94FC1A0E94E912811104C029
:105A70000E94FE110E9406130E946611811102C04D
:105A80000E9433300E948911182F63E58AEC91E05F
:105A90000E949E0C0E94C519FFEF20E732E0F150F2
:105AA00020403040E1F700C0000063E58AEC91E05F
:105AB0000E94740C0E94C5190E94891191E018136C
:105AC00090E09093BF021092810310928003109295
:105AD0008303109282031092850310928403109224
